{
  "contractName": "DrugTraceability",
  "abi": [
    {
      "inputs": [],
      "name": "drugCount",
      "outputs": [
        {
          "internalType": "uint256",
          "name": "",
          "type": "uint256"
        }
      ],
      "stateMutability": "view",
      "type": "function",
      "constant": true
    },
    {
      "inputs": [
        {
          "internalType": "uint256",
          "name": "",
          "type": "uint256"
        }
      ],
      "name": "drugs",
      "outputs": [
        {
          "internalType": "uint256",
          "name": "id",
          "type": "uint256"
        },
        {
          "internalType": "string",
          "name": "name",
          "type": "string"
        },
        {
          "internalType": "string",
          "name": "manufacturer",
          "type": "string"
        },
        {
          "internalType": "string",
          "name": "batchNo",
          "type": "string"
        },
        {
          "internalType": "string",
          "name": "expiryDate",
          "type": "string"
        }
      ],
      "stateMutability": "view",
      "type": "function",
      "constant": true
    },
    {
      "inputs": [
        {
          "internalType": "string",
          "name": "_name",
          "type": "string"
        },
        {
          "internalType": "string",
          "name": "_manufacturer",
          "type": "string"
        },
        {
          "internalType": "string",
          "name": "_batchNo",
          "type": "string"
        },
        {
          "internalType": "string",
          "name": "_expiryDate",
          "type": "string"
        }
      ],
      "name": "addDrug",
      "outputs": [],
      "stateMutability": "nonpayable",
      "type": "function"
    },
    {
      "inputs": [
        {
          "internalType": "uint256",
          "name": "_id",
          "type": "uint256"
        }
      ],
      "name": "getDrug",
      "outputs": [
        {
          "components": [
            {
              "internalType": "uint256",
              "name": "id",
              "type": "uint256"
            },
            {
              "internalType": "string",
              "name": "name",
              "type": "string"
            },
            {
              "internalType": "string",
              "name": "manufacturer",
              "type": "string"
            },
            {
              "internalType": "string",
              "name": "batchNo",
              "type": "string"
            },
            {
              "internalType": "string",
              "name": "expiryDate",
              "type": "string"
            }
          ],
          "internalType": "struct DrugTraceability.Drug",
          "name": "",
          "type": "tuple"
        }
      ],
      "stateMutability": "view",
      "type": "function",
      "constant": true
    }
  ],
  "bytecode": "0x6080604052600060015534801561001557600080fd5b50610d98806100256000396000f3fe608060405234801561001057600080fd5b506004361061004c5760003560e01c80637577ca3714610051578063804cc13d1461006f578063b8840d3d1461008b578063fca5e61e146100bb575b600080fd5b6100596100ef565b6040516100669190610ace565b60405180910390f35b61008960048036038101906100849190610845565b6100f5565b005b6100a560048036038101906100a09190610908565b6101d1565b6040516100b29190610aac565b60405180910390f35b6100d560048036038101906100d09190610908565b6104a0565b6040516100e6959493929190610ae9565b60405180910390f35b60015481565b6001600081548092919061010890610c64565b91905055506040518060a0016040528060015481526020018581526020018481526020018381526020018281525060008060015481526020019081526020016000206000820151816000015560208201518160010190805190602001906101709291906106f6565b50604082015181600201908051906020019061018d9291906106f6565b5060608201518160030190805190602001906101aa9291906106f6565b5060808201518160040190805190602001906101c79291906106f6565b5090505050505050565b6101d961077c565b6000821180156101eb57506001548211155b61022a576040517f08c379a000000000000000000000000000000000000000000000000000000000815260040161022190610a8c565b60405180910390fd5b6000808381526020019081526020016000206040518060a00160405290816000820154815260200160018201805461026190610c32565b80601f016020809104026020016040519081016040528092919081815260200182805461028d90610c32565b80156102da5780601f106102af576101008083540402835291602001916102da565b820191906000526020600020905b8154815290600101906020018083116102bd57829003601f168201915b505050505081526020016002820180546102f390610c32565b80601f016020809104026020016040519081016040528092919081815260200182805461031f90610c32565b801561036c5780601f106103415761010080835404028352916020019161036c565b820191906000526020600020905b81548152906001019060200180831161034f57829003601f168201915b5050505050815260200160038201805461038590610c32565b80601f01602080910402602001604051908101604052809291908181526020018280546103b190610c32565b80156103fe5780601f106103d3576101008083540402835291602001916103fe565b820191906000526020600020905b8154815290600101906020018083116103e157829003601f168201915b5050505050815260200160048201805461041790610c32565b80601f016020809104026020016040519081016040528092919081815260200182805461044390610c32565b80156104905780601f1061046557610100808354040283529160200191610490565b820191906000526020600020905b81548152906001019060200180831161047357829003601f168201915b5050505050815250509050919050565b60006020528060005260406000206000915090508060000154908060010180546104c990610c32565b80601f01602080910402602001604051908101604052809291908181526020018280546104f590610c32565b80156105425780601f1061051757610100808354040283529160200191610542565b820191906000526020600020905b81548152906001019060200180831161052557829003601f168201915b50505050509080600201805461055790610c32565b80601f016020809104026020016040519081016040528092919081815260200182805461058390610c32565b80156105d05780601f106105a5576101008083540402835291602001916105d0565b820191906000526020600020905b8154815290600101906020018083116105b357829003601f168201915b5050505050908060030180546105e590610c32565b80601f016020809104026020016040519081016040528092919081815260200182805461061190610c32565b801561065e5780601f106106335761010080835404028352916020019161065e565b820191906000526020600020905b81548152906001019060200180831161064157829003601f168201915b50505050509080600401805461067390610c32565b80601f016020809104026020016040519081016040528092919081815260200182805461069f90610c32565b80156106ec5780601f106106c1576101008083540402835291602001916106ec565b820191906000526020600020905b8154815290600101906020018083116106cf57829003601f168201915b5050505050905085565b82805461070290610c32565b90600052602060002090601f016020900481019282610724576000855561076b565b82601f1061073d57805160ff191683800117855561076b565b8280016001018555821561076b579182015b8281111561076a57825182559160200191906001019061074f565b5b50905061077891906107ab565b5090565b6040518060a0016040528060008152602001606081526020016060815260200160608152602001606081525090565b5b808211156107c45760008160009055506001016107ac565b5090565b60006107db6107d684610b89565b610b58565b9050828152602081018484840111156107f357600080fd5b6107fe848285610bf0565b509392505050565b600082601f83011261081757600080fd5b81356108278482602086016107c8565b91505092915050565b60008135905061083f81610d4b565b92915050565b6000806000806080858703121561085b57600080fd5b600085013567ffffffffffffffff81111561087557600080fd5b61088187828801610806565b945050602085013567ffffffffffffffff81111561089e57600080fd5b6108aa87828801610806565b935050604085013567ffffffffffffffff8111156108c757600080fd5b6108d387828801610806565b925050606085013567ffffffffffffffff8111156108f057600080fd5b6108fc87828801610806565b91505092959194509250565b60006020828403121561091a57600080fd5b600061092884828501610830565b91505092915050565b600061093c82610bb9565b6109468185610bc4565b9350610956818560208601610bff565b61095f81610d3a565b840191505092915050565b600061097582610bb9565b61097f8185610bd5565b935061098f818560208601610bff565b61099881610d3a565b840191505092915050565b60006109b0600e83610bd5565b91507f44727567206e6f7420666f756e640000000000000000000000000000000000006000830152602082019050919050565b600060a0830160008301516109fb6000860182610a6e565b5060208301518482036020860152610a138282610931565b91505060408301518482036040860152610a2d8282610931565b91505060608301518482036060860152610a478282610931565b91505060808301518482036080860152610a618282610931565b9150508091505092915050565b610a7781610be6565b82525050565b610a8681610be6565b82525050565b60006020820190508181036000830152610aa5816109a3565b9050919050565b60006020820190508181036000830152610ac681846109e3565b905092915050565b6000602082019050610ae36000830184610a7d565b92915050565b600060a082019050610afe6000830188610a7d565b8181036020830152610b10818761096a565b90508181036040830152610b24818661096a565b90508181036060830152610b38818561096a565b90508181036080830152610b4c818461096a565b90509695505050505050565b6000604051905081810181811067ffffffffffffffff82111715610b7f57610b7e610d0b565b5b8060405250919050565b600067ffffffffffffffff821115610ba457610ba3610d0b565b5b601f19601f8301169050602081019050919050565b600081519050919050565b600082825260208201905092915050565b600082825260208201905092915050565b6000819050919050565b82818337600083830152505050565b60005b83811015610c1d578082015181840152602081019050610c02565b83811115610c2c576000848401525b50505050565b60006002820490506001821680610c4a57607f821691505b60208210811415610c5e57610c5d610cdc565b5b50919050565b6000610c6f82610be6565b91507fffffffffffffffffffffffffffffffffffffffffffffffffffffffffffffffff821415610ca257610ca1610cad565b5b600182019050919050565b7f4e487b7100000000000000000000000000000000000000000000000000000000600052601160045260246000fd5b7f4e487b7100000000000000000000000000000000000000000000000000000000600052602260045260246000fd5b7f4e487b7100000000000000000000000000000000000000000000000000000000600052604160045260246000fd5b6000601f19601f8301169050919050565b610d5481610be6565b8114610d5f57600080fd5b5056fea26469706673582212203d4976e2ca0df2a20e9cb99b0c38e9142030aebec33caa4ea2ea51c7f554e1a164736f6c63430008000033",
  "immutableReferences": {},
  "source": "// SPDX-License-Identifier: MIT\r\npragma solidity ^0.8.0;\r\n\r\ncontract DrugTraceability {\r\n    struct Drug {\r\n        uint id;\r\n        string name;\r\n        string manufacturer;\r\n        string batchNo;\r\n        string expiryDate;\r\n    }\r\n\r\n    mapping(uint => Drug) public drugs;\r\n    uint public drugCount = 0;\r\n\r\n    function addDrug(string memory _name, string memory _manufacturer, string memory _batchNo, string memory _expiryDate) public {\r\n        drugCount++;\r\n        drugs[drugCount] = Drug(drugCount, _name, _manufacturer, _batchNo, _expiryDate);\r\n    }\r\n\r\n    function getDrug(uint _id) public view returns (Drug memory) {\r\n        require(_id > 0 && _id <= drugCount, \"Drug not found\");\r\n        return drugs[_id];\r\n    }\r\n}\r\n",
  "sourcePath": "C:\\Users\\91915\\OneDrive\\Desktop\\drugtraceability\\drug-traceability\\contracts\\DrugTraceability.sol",
  "compiler": {
    "name": "solc",
    "version": "0.8.0+commit.c7dfd78e.Emscripten.clang"
  },
  "schemaVersion": "3.4.16",
  "updatedAt": "2025-07-25T09:25:12.843Z",
  "networkType": "ethereum",
  "devdoc": {
    "kind": "dev",
    "methods": {},
    "version": 1
  },
  "userdoc": {
    "kind": "user",
    "methods": {},
    "version": 1
  }
}